{
  "contractName": "PeerToPeer",
  "abi": [
    {
      "anonymous": false,
      "inputs": [
        {
          "indexed": false,
          "internalType": "uint256",
          "name": "id",
          "type": "uint256"
        },
        {
          "indexed": false,
          "internalType": "address",
          "name": "from",
          "type": "address"
        },
        {
          "indexed": false,
          "internalType": "address",
          "name": "receiver",
          "type": "address"
        },
        {
          "indexed": false,
          "internalType": "uint256",
          "name": "amount",
          "type": "uint256"
        },
        {
          "indexed": false,
          "internalType": "string",
          "name": "message",
          "type": "string"
        },
        {
          "indexed": false,
          "internalType": "uint256",
          "name": "timestamp",
          "type": "uint256"
        }
      ],
      "name": "Transfer",
      "type": "event"
    },
    {
      "constant": true,
      "inputs": [
        {
          "internalType": "uint256",
          "name": "",
          "type": "uint256"
        }
      ],
      "name": "transactions",
      "outputs": [
        {
          "internalType": "address",
          "name": "from",
          "type": "address"
        },
        {
          "internalType": "address",
          "name": "receiver",
          "type": "address"
        },
        {
          "internalType": "uint256",
          "name": "amount",
          "type": "uint256"
        },
        {
          "internalType": "string",
          "name": "message",
          "type": "string"
        },
        {
          "internalType": "uint256",
          "name": "timestamp",
          "type": "uint256"
        }
      ],
      "payable": false,
      "stateMutability": "view",
      "type": "function"
    },
    {
      "constant": false,
      "inputs": [
        {
          "internalType": "address payable",
          "name": "receiver",
          "type": "address"
        },
        {
          "internalType": "uint256",
          "name": "amount",
          "type": "uint256"
        },
        {
          "internalType": "string",
          "name": "message",
          "type": "string"
        }
      ],
      "name": "makeTransaction",
      "outputs": [],
      "payable": false,
      "stateMutability": "nonpayable",
      "type": "function"
    },
    {
      "constant": true,
      "inputs": [],
      "name": "getAllTransactions",
      "outputs": [
        {
          "components": [
            {
              "internalType": "address",
              "name": "from",
              "type": "address"
            },
            {
              "internalType": "address",
              "name": "receiver",
              "type": "address"
            },
            {
              "internalType": "uint256",
              "name": "amount",
              "type": "uint256"
            },
            {
              "internalType": "string",
              "name": "message",
              "type": "string"
            },
            {
              "internalType": "uint256",
              "name": "timestamp",
              "type": "uint256"
            }
          ],
          "internalType": "struct PeerToPeer.Transaction[]",
          "name": "",
          "type": "tuple[]"
        }
      ],
      "payable": false,
      "stateMutability": "view",
      "type": "function"
    },
    {
      "constant": true,
      "inputs": [],
      "name": "getTransactionCount",
      "outputs": [
        {
          "internalType": "uint256",
          "name": "",
          "type": "uint256"
        }
      ],
      "payable": false,
      "stateMutability": "view",
      "type": "function"
    },
    {
      "constant": true,
      "inputs": [],
      "name": "getBalanceOfOwner",
      "outputs": [
        {
          "internalType": "uint256",
          "name": "",
          "type": "uint256"
        }
      ],
      "payable": false,
      "stateMutability": "view",
      "type": "function"
    }
  ],
  "bytecode": "0x608060405234801561001057600080fd5b50610c47806100206000396000f3fe608060405234801561001057600080fd5b50600436106100575760003560e01c806327506f531461005c5780632e7700f01461007a5780636729bc57146100985780639ace38c2146100b4578063d8c24541146100e8575b600080fd5b610064610106565b6040516100719190610990565b60405180910390f35b6100826102c7565b60405161008f91906109b2565b60405180910390f35b6100b260048036036100ad91908101906106b1565b6102d0565b005b6100ce60048036036100c99190810190610718565b61046b565b6040516100df959493929190610936565b60405180910390f35b6100f0610586565b6040516100fd91906109b2565b60405180910390f35b60606001805480602002602001604051908101604052809291908181526020016000905b828210156102be57838290600052602060002090600502016040518060a00160405290816000820160009054906101000a900473ffffffffffffffffffffffffffffffffffffffff1673ffffffffffffffffffffffffffffffffffffffff1673ffffffffffffffffffffffffffffffffffffffff1681526020016001820160009054906101000a900473ffffffffffffffffffffffffffffffffffffffff1673ffffffffffffffffffffffffffffffffffffffff1673ffffffffffffffffffffffffffffffffffffffff16815260200160028201548152602001600382018054600181600116156101000203166002900480601f01602080910402602001604051908101604052809291908181526020018280546001816001161561010002031660029004801561029c5780601f106102715761010080835404028352916020019161029c565b820191906000526020600020905b81548152906001019060200180831161027f57829003601f168201915b505050505081526020016004820154815250508152602001906001019061012a565b50505050905090565b60008054905090565b600080815480929190600101919050555060016040518060a001604052803373ffffffffffffffffffffffffffffffffffffffff1681526020018573ffffffffffffffffffffffffffffffffffffffff168152602001848152602001838152602001428152509080600181540180825580915050906001820390600052602060002090600502016000909192909190915060008201518160000160006101000a81548173ffffffffffffffffffffffffffffffffffffffff021916908373ffffffffffffffffffffffffffffffffffffffff16021790555060208201518160010160006101000a81548173ffffffffffffffffffffffffffffffffffffffff021916908373ffffffffffffffffffffffffffffffffffffffff16021790555060408201518160020155606082015181600301908051906020019061041592919061058e565b50608082015181600401555050507fc0e3360f10ce450b8d237a5f6d873f904819f08f70c3f66eb8f38a1962b185dd600054338585854260405161045e969594939291906109cd565b60405180910390a1505050565b6001818154811061047857fe5b90600052602060002090600502016000915090508060000160009054906101000a900473ffffffffffffffffffffffffffffffffffffffff16908060010160009054906101000a900473ffffffffffffffffffffffffffffffffffffffff1690806002015490806003018054600181600116156101000203166002900480601f0160208091040260200160405190810160405280929190818152602001828054600181600116156101000203166002900480156105765780601f1061054b57610100808354040283529160200191610576565b820191906000526020600020905b81548152906001019060200180831161055957829003601f168201915b5050505050908060040154905085565b600047905090565b828054600181600116156101000203166002900490600052602060002090601f016020900481019282601f106105cf57805160ff19168380011785556105fd565b828001600101855582156105fd579182015b828111156105fc5782518255916020019190600101906105e1565b5b50905061060a919061060e565b5090565b61063091905b8082111561062c576000816000905550600101610614565b5090565b90565b60008135905061064281610bd6565b92915050565b600082601f83011261065957600080fd5b813561066c61066782610a62565b610a35565b9150808252602083016020830185838301111561068857600080fd5b610693838284610b83565b50505092915050565b6000813590506106ab81610bed565b92915050565b6000806000606084860312156106c657600080fd5b60006106d486828701610633565b93505060206106e58682870161069c565b925050604084013567ffffffffffffffff81111561070257600080fd5b61070e86828701610648565b9150509250925092565b60006020828403121561072a57600080fd5b60006107388482850161069c565b91505092915050565b600061074d83836108a2565b905092915050565b61075e81610b4d565b82525050565b61076d81610aff565b82525050565b61077c81610aff565b82525050565b600061078d82610a9e565b6107978185610acc565b9350836020820285016107a985610a8e565b8060005b858110156107e557848403895281516107c68582610741565b94506107d183610abf565b925060208a019950506001810190506107ad565b50829750879550505050505092915050565b600061080282610ab4565b61080c8185610aee565b935061081c818560208601610b92565b61082581610bc5565b840191505092915050565b600061083b82610aa9565b6108458185610add565b9350610855818560208601610b92565b61085e81610bc5565b840191505092915050565b600061087482610aa9565b61087e8185610aee565b935061088e818560208601610b92565b61089781610bc5565b840191505092915050565b600060a0830160008301516108ba6000860182610764565b5060208301516108cd6020860182610764565b5060408301516108e06040860182610918565b50606083015184820360608601526108f88282610830565b915050608083015161090d6080860182610918565b508091505092915050565b61092181610b43565b82525050565b61093081610b43565b82525050565b600060a08201905061094b6000830188610773565b6109586020830187610773565b6109656040830186610927565b81810360608301526109778185610869565b90506109866080830184610927565b9695505050505050565b600060208201905081810360008301526109aa8184610782565b905092915050565b60006020820190506109c76000830184610927565b92915050565b600060c0820190506109e26000830189610927565b6109ef6020830188610755565b6109fc6040830187610755565b610a096060830186610927565b8181036080830152610a1b81856107f7565b9050610a2a60a0830184610927565b979650505050505050565b6000604051905081810181811067ffffffffffffffff82111715610a5857600080fd5b8060405250919050565b600067ffffffffffffffff821115610a7957600080fd5b601f19601f8301169050602081019050919050565b6000819050602082019050919050565b600081519050919050565b600081519050919050565b600081519050919050565b6000602082019050919050565b600082825260208201905092915050565b600082825260208201905092915050565b600082825260208201905092915050565b6000610b0a82610b23565b9050919050565b6000610b1c82610b23565b9050919050565b600073ffffffffffffffffffffffffffffffffffffffff82169050919050565b6000819050919050565b6000610b5882610b5f565b9050919050565b6000610b6a82610b71565b9050919050565b6000610b7c82610b23565b9050919050565b82818337600083830152505050565b60005b83811015610bb0578082015181840152602081019050610b95565b83811115610bbf576000848401525b50505050565b6000601f19601f8301169050919050565b610bdf81610b11565b8114610bea57600080fd5b50565b610bf681610b43565b8114610c0157600080fd5b5056fea365627a7a72315820c4b4e4bc9c43339feedc5b3a90267a6bb4a49f9cc4388e766dbc8c450577efcd6c6578706572696d656e74616cf564736f6c63430005100040",
  "source": "// SPDX-License-Identifier: MIT\npragma solidity >=0.4.22 <0.9.0;\npragma experimental ABIEncoderV2;\n\ncontract PeerToPeer {\n  //keep trackof transactions\n  uint256 transactionCount;\n  //an event that will be emitted after each transaction\n  event Transfer(\n      uint id,\n      address from, \n      address receiver, \n      uint amount,\n      string message,\n      uint timestamp\n    );\n\n    //struct to define the transactions\n    struct Transaction{\n      address from; \n      address receiver;\n      uint amount;\n      string message;\n      uint timestamp;\n    }\n    //keeping transactions records\n    Transaction[] public transactions;\n \n    //Add transactions to ethereum \n    //based on our struct\n    function makeTransaction(address payable receiver, uint amount, string memory message) public{\n      //add transaction count\n      transactionCount++;\n      transactions.push(Transaction(msg.sender, receiver, amount, message, block.timestamp));\n      emit Transfer(transactionCount, msg.sender, receiver, amount, message, block.timestamp);\n    }\n\n    //Get All Transactions From Etheruem\n    function getAllTransactions() public view returns(Transaction[] memory){\n        return transactions;\n    }\n\n    //Get Transaction Count\n    function getTransactionCount() public view returns (uint256){\n      return transactionCount;\n    }\n\n    function getBalanceOfOwner() public view returns(uint){\n        return address(this).balance;\n    }\n}\n",
  "sourcePath": "c:\\Users\\Ripper\\OneDrive\\Desktop\\solidity-apps\\next-js-solidity\\venmo-blockchain-youtube\\backend-web3\\contracts\\PeerToPeer.sol",
  "compiler": {
    "name": "solc",
    "version": "0.5.16+commit.9c3226ce.Emscripten.clang"
  },
  "schemaVersion": "3.4.9",
  "updatedAt": "2022-09-27T10:21:06.049Z",
  "networkType": "ethereum",
  "devdoc": {
    "methods": {}
  },
  "userdoc": {
    "methods": {}
  }
}